:020000040800F2
:10000000C8070020690100080B0200080702000869
:1000100000000000000000000000000000000000E0
:100020000000000000000000000000000F020008B7
:1000300000000000000000000D0200087901000827
:100040007B0100087B0100087B0100087B010008A0
:100050007B0100087B0100087B0100087B01000890
:100060007B0100087B0100087B0100087B01000880
:100070007B0100087B0100087B0100087B01000870
:100080007B0100087B0100087B0100087B01000860
:10009000A50200087B0100087B0100087B01000825
:1000A0007B0100087B0100087B0100087B01000840
:1000B0007B0100087B0100087B0100087B01000830
:1000C0007B0100087B0100087B0100087B01000820
:1000D0007B0100087B010008000000007B01000894
:1000E0007B0100087B0100087B0100087B01000800
:1000F0000000000000000000000000007B0100087C
:1001000000000000000000000000000000000000EF
:100110000000000000000000000000007B0100085B
:100120007B0100087B0100087B0100087B010008BF
:100130007B0100087B0100087B0100087B010008AF
:100140007B0100087B0100087B0100087B0100089F
:100150007B0100080348854600F026F80048004768
:1001600055110008C807002004488047044800478C
:10017000FEE7FEE7FEE7FEE7FEE7FEE71102000806
:100180005501000803460B439B0703D009E008C94B
:10019000121F08C0042AFAD203E00B780370401C37
:1001A000491C521EF9D27047064C0125064E05E047
:1001B000E36807CC2B430C3C98471034B442F7D388
:1001C000FFF7CCFFBC240008DC24000830B58C18F5
:1001D0000278401C13071B0F01D10378401C120941
:1001E00006D10278401C03E005780D70401C491CC4
:1001F0005B1EF9D101E00B70491C521EFBD1A142DC
:10020000E6D3002030BDFFE7FEE770477047704738
:1002100080B582B01B480168012211430160FFE7ED
:10022000184800688007002801D4FFE7F8E716485F
:100230000168164A114001600168154A11400160C9
:1002400010480168134A11400160134801680F22E9
:10025000914301601148016840F20312914301602B
:10026000016803229207914301600D48002101605B
:10027000019101F0C1F80120C006019900F0B8FF1A
:1002800002B080BD00100240041002400C00FF08C4
:10029000FFFF007FFFFFF2FE2C10024030100240F3
:1002A0000810024080B501F0FFFE80BD81B001461C
:1002B0006A461070107840B200280DD4FFE76846F7
:1002C000007840B21F2102460A40012191404009B6
:1002D0008000024A8150FFE701B0704700E100E072
:1002E00070B582B0024601AB18700091187840B228
:1002F000002817D4FFE701A8017849B20322D243AE
:100300001140184BC958007840B28407E40EFF250D
:10031000A540A943009DAD01EDB2A5402943104081
:10032000C1501AE001A801780F22114008390323B7
:10033000DB4319400A4C0959007840B28507ED0E9D
:10034000FF26AE40B143009EB601F6B2AE40314347
:100350001040083818400151FFE702B070BDC04698
:100360001CED00E000E400E084B00B46029001A820
:10037000017000920298A8214058806800280FD090
:10038000FFE70298A821405880688278C078000270
:100390001018009A1080029840588068039004E07A
:1003A0000098002101800391FFE7039804B0704793
:1003B00083B00B46029001A8017000920298A82118
:1003C000405840688278C07800021018009A108067
:1003D00002984058406803B0704783B00B460290C3
:1003E00001A8017000920298A82140580068007886
:1003F000009A108002984058006803B0704780B59A
:1004000082B00A460190684601700198007D00287C
:1004100007D0FFE7019800F0F3FF01980021017574
:10042000FFE70198807803280DD1FFE70198AC2100
:1004300040584069002806D0FFE70198AC21415898
:1004400049698847FFE7019800F0F5FF0198407877
:10045000002809D0FFE70198B0214158C9688847B2
:10046000019800214170FFE702B080BD80B584B0E3
:100470000A46039002A801700398807803280DD1E2
:10048000FFE70398AC2140588069002806D0FFE7B9
:100490000398AC21415889698847FFE7039802A96E
:1004A00009780C224A438018183000210191019AE2
:1004B000019B01F010F8039800F0CBFF04B080BD61
:1004C00080B588B00A46079006A8017005A80121EA
:1004D00001700798B0214158096B0C30002303913B
:1004E000194602921A46039B984704A90880088877
:1004F000082804D0FFE7079800F0BAFF4AE0079801
:10050000007B602108400028019008D0FFE7019897
:1005100020280CD0FFE70198402810D017E007985A
:1005200001460C3101F066FF05A9087010E007983C
:1005300001460C3101F006F805A9087008E007989B
:1005400001460C3101F07EFF05A9087000E0FFE7CD
:1005500005A80078002819D1FFE70798408A0028ED
:1005600004D1FFE7079800F074FF0EE00798007BC6
:100570000006002804D5FFE7079800F050FF03E0CD
:10058000079800F058FFFFE7FFE703E0079800F047
:100590006FFFFFE708B080BD80B586B0049003917F
:1005A00002A8002101700398007803210840002868
:1005B000019008D0FFE7019801284AD0FFE7019891
:1005C000022817D046E004988078801E01280FD8B2
:1005D000FFE703988178C07800024018012806D10F
:1005E000FFE704980021017205A8017037E000E0E0
:1005F000FFE730E00398007902A90870049880783A
:10060000032825D1FFE703988178C07800024018BD
:1006100000281CD1FFE702A80078002817D0FFE7C8
:1006200002A80078802812D0FFE7049802A9097870
:1006300000F0F6FF0498AC214158C968039A009174
:100640001146009A904705A900220A7007E0FFE7CB
:1006500001E000E0FFE705A801210170FFE705A820
:10066000007806B080BD80B586B00590049103A8DF
:1006700001210170059880780228029004D0FFE7DC
:10068000029803280AD013E005980078002804D1C6
:10069000FFE703A800210170FFE70AE00598007852
:1006A000002804D0FFE703A800210170FFE700E065
:1006B000FFE703A8007800280CD1FFE70598014662
:1006C000483101220190084601990092009B00F0F8
:1006D000EDFEFFE703A8007806B080BD80B58EB0C0
:1006E0000D900C910BA8002101700AA8017009A8B7
:1006F000012101700D98483008900C980078032172
:1007000008400028079009D0FFE70798012800D18A
:1007100092E00798022800D19AE09AE00C98C078FD
:100720000BA908700C9880780AAA10700878401EEF
:100730000E2806907ED80698810001A251188F4697
:1007400000F01CB800F03BB800F04EB800F067B8FD
:1007500000F065B800F063B800F061B800F05FB871
:1007600000F068B800F066B800F064B800F062B855
:1007700000F060B800F05EB800F052B80BA8007846
:10078000800055494018001F00680D990AAA127888
:10079000089B08330590084611461A46059B984762
:1007A000089948600C988179C07900024018402867
:1007B00004D1FFE7089808210181FFE73BE00BA87F
:1007C0000078800044494018001F00680D990AAA6B
:1007D0001278089B08330490084611461A46049B79
:1007E00098470899486026E00AA80078052815DC93
:1007F000FFE70BA80078800037494018001F006809
:100800000D990AAA1278089B0833039008461146EE
:100810001A46039B984708994860FFE70BE00AE0F7
:100820000D980AA90978089A0832FFF79DFD0899E2
:10083000486000E0FFE70DE00D98AC214158C96821
:100840000C9A02911146029A904709A9087001E09A
:1008500000E0FFE708980089002839D0FFE70C98EE
:100860008179C07900024018002831D0FFE708984C
:1008700000890C998A79C97909028918884204DAB1
:10088000FFE708980089019006E00C988179C0790B
:10089000000240180190FFE7019808990881089824
:1008A00000890D99498A88420EDAFFE70898018984
:1008B0000088B1FBF0F25043081A002804D1FFE78A
:1008C0000D9801210175FFE709A800210170FFE7DC
:1008D00009A800780EB080BD4802002080B586B01F
:1008E00004900391049880780128029008D0FFE7D3
:1008F0000298022805D0FFE70298032802D019E0E9
:1009000019E018E003980079002812D1FFE7049855
:1009100001464831AC228058801C012201900846D3
:1009200001990092009B00F0C1FD05A80021017013
:1009300005E000E0FFE705A801210170FFE705A839
:10094000007806B080BD000080B586B005900491A7
:100950000498007903A9087002A801210170049885
:100960000078032108400028019008D0FFE7019893
:1009700001282CD0FFE70198022837D05DE00598C8
:100980008078801E012820D8FFE70598007900288C
:1009900004D0FFE732480121017003E03048002114
:1009A0000170FFE70598007A002806D0FFE72C4881
:1009B000017802221143017003E0294800210170EF
:1009C000FFE702A80021017000E0FFE736E005988C
:1009D0008078032809D1FFE703A80078002804D114
:1009E000FFE702A800210170FFE727E00598807863
:1009F000032821D1FFE703A80078000600280DD5C1
:100A0000FFE7059803A909787F2211400C224A4389
:100A100080184A21405C1249087009E0059803A932
:100A200009780C224A438018807E0D490870FFE740
:100A300002A800210170FFE700E0FFE702A80078AC
:100A4000002809D1FFE705984830054902220092A5
:100A5000009B00F02BFDFFE702A8007806B080BDE8
:100A6000A802002082B001900091012002B07047DE
:100A700083B00190009100980179407900024018FC
:100A8000002825D1FFE700988179C079000240183D
:100A900000281DD1FFE7009880787F210840019948
:100AA000487001988078032811D0FFE701984078BA
:100AB000002804D0FFE701980221817003E001982B
:100AC00001218170FFE702A80021017004E0FFE727
:100AD00002A801210170FFE702A8007803B0704767
:100AE00010B58AB00990089107A8012101700898F3
:100AF0008078384908700878012867D8FFE7099896
:100B00008078012806905ED0FFE70698022804D07E
:100B1000FFE7069803281CD056E02E4800780028EE
:100B200013D0FFE70998AC2141584968294A137846
:100B300005911946059B0492984704990A78099BE8
:100B40001A70099A03239370FFE707A80021017028
:100B50003BE020480078002813D1FFE70998AC213A
:100B6000415889681B4A137803911946039B0292E6
:100B7000984702990A78099B1A70099A0223937080
:100B80001DE01448007809990978884215D0FFE7DC
:100B90000998AC2142589268037801911946904710
:100BA0000C490A78099B1A70099A019BD458646809
:100BB000097800901046A04700E0FFE7FFE707A88C
:100BC0000021017001E000E0FFE7FFE707A80078DF
:100BD0000AB010BDAA02002082B00190009100204E
:100BE00002B0704780B586B00490039102A800213E
:100BF000017003980078032108400028019008D074
:100C0000FFE70198012842D0FFE70198022818D099
:100C10003EE004988078801E012810D8FFE70398F2
:100C20008178C07800024018012807D1FFE70498B6
:100C30000121017205A8002101702EE000E0FFE70C
:100C400027E00398007902A90870049880780328A7
:100C50001CD1FFE703988178C07800024018002873
:100C600013D1FFE702A8007800280ED0FFE702A802
:100C70000078802809D0FFE7049802A9097801F0DC
:100C800091F805A80021017007E0FFE701E000E00E
:100C9000FFE705A801210170FFE705A8007806B06D
:100CA00080BD84B002900191029880780128009064
:100CB00008D0FFE70098022805D0FFE70098032836
:100CC00002D011E011E010E00198007900280AD16B
:100CD000FFE7019880780299AC228958887003A8B0
:100CE0000021017005E000E0FFE703A80121017089
:100CF000FFE703A8007804B0704782B0019000912C
:100D0000002002B0704784B00B46039002A8017027
:100D100001920399A8228958C96800788000085870
:100D200000900098007801990880009804B07047FE
:100D300083B001900198B4214058002813D0FFE7F8
:100D40000198B4214058009000988078012809D17A
:100D5000FFE700980078012804D1FFE702A80021EE
:100D6000017004E0FFE702A805210170FFE702A877
:100D7000007803B0704782B001900198B4214058C8
:100D800000900198AC2140580078FF280BD0FFE775
:100D9000009801218170009801700198AC214058A1
:100DA000FF210170FFE7002002B0704780B586B0D8
:100DB0000A46059004A80170059900780C23434366
:100DC000C818483003900598B42140580290039801
:100DD0004189008881420BD1FFE7059804A9097871
:100DE0007F22114000220192019B00F03DFE05E0B0
:100DF00002980121417002980170FFE706B080BDA2
:100E000083B00A46029001A801700299B423C95820
:100E10000091009901238B70029900780C234343C1
:100E2000C818408C0099486403B0704780B582B000
:100E300001900198B42140580090009800218170E1
:100E400000980170019800990A1D0321402300F0C9
:100E500061FD02B080BD10B584B003900398B42149
:100E6000405802900298406C01900198002816D0DA
:100E7000FFE702984078012811D1FFE7029800218E
:100E800041700398029A121D01AB1B8881240091C6
:100E9000214600F0E9FD029800994164FFE704B0A3
:100EA00010BD80B584B00A46039002A80170039873
:100EB0008121019200F09EFC0398032100F09AFC2E
:100EC0000398822100F096FC002004B080BD000051
:100ED000B0B58CB00A460B900AA801700B98274950
:100EE0000B463C33002440F2401507912146069200
:100EF0002A46059400F0F4FC0B980799353140F22E
:100F00000012059B04911946049B00F0E9FC0B9824
:100F100007992531C022059B03911946039B00F0D8
:100F2000DFFCA248C1690B9A8C23D150006A0B994F
:100F3000A0228850124805998170012242700270E7
:100F4000416408ABD9709A70C2225A701970197135
:100F5000597108229A7102464832072402901046BD
:100F600019462246FFF70EF90B99B422029B8B50CB
:100F70000599019008460CB0B0BDC0465C00002049
:100F8000AC02002080B58CB00B900A9109A8012119
:100F9000017006A800210181079106910B99B422E6
:100FA0008958059104900A9840782328039000D925
:100FB00091E00398810001A251188F4600F046B8D5
:100FC00000F045B800F044B800F043B800F042B873
:100FD00000F081B800F07FB800F07DB800F07BB879
:100FE00000F079B800F077B800F075B800F073B889
:100FF00000F071B800F06FB800F06DB800F06BB899
:1010000000F069B800F067B800F065B800F063B8A8
:1010100000F061B800F05FB800F05DB800F05BB8B8
:1010200000F059B800F057B800F055B800F053B8C8
:1010300000F051B800F04FB800F04DB800F00BB818
:1010400000F020B800F02BB800F044B844E043E0D2
:1010500042E041E040E00A9840780B99AC22895880
:1010600008700B981830059948310A9A9379D2790B
:101070001202D2180023029300F042FA09A8029942
:10108000017029E00B984830059948310722002368
:10109000019300F035FA09A8019901701CE0049849
:1010A000A121017004982021417004980021417110
:1010B00001710498C17081700498C171022282711B
:1010C0000A9880780322104006AA1072517209A86B
:1010D000017001E000E0FFE709A800780CB080BDD6
:1010E00084B013460390029101A802706846002163
:1010F0000170FFE76846007801A90978884227DA7D
:10110000FFE70398000F092809D8FFE70398000FAD
:10111000303002996A4612785200885408E00398E9
:10112000000F373002996A46127852008854FFE760
:10113000039800010390029869460978490008184D
:1011400000214170FFE70098401C69460870D1E714
:1011500004B0704780B582B00020019000F058F8CC
:1011600010481149114A009000F03EFF00F020F8AD
:10117000009800F00AFAFFE70A488078032801D0B7
:10118000FFE7F9E7FFE70748FFF7D2FD002804D1A2
:10119000FFE70448FFF74AFE03E00248FFF75BFE63
:1011A000FFE7F0E7FC020020A0000020380000204C
:1011B00080B51420022100F001F880BD10B586B082
:1011C0000A46034605AC207004A80170217849B294
:1011D0000078039008460399029201930094FFF768
:1011E0007FF80098017848B2FFF760F806B010BDAC
:1011F00082B00190009101980099034A1140084380
:101200000249086002B0704780FFFF1F08ED00E050
:1012100080B542F2000000F019F8024800F004F82E
:1012200080BDC0461707000010B581B001466A4670
:10123000108010881F220346134001229A40800923
:10124000674BC4581443C45001B010BD81B0009026
:101250000548016842F2000291430160009902686A
:101260000A43026001B070473010024080B582B07E
:1012700001900198B02140584069804702B080BD7C
:1012800080B586B005900598007806281FD0FFE746
:1012900019480068049019480068039018480068CD
:1012A00002900298049908180490049800280DD020
:1012B000FFE704980599891C0822FFF711FF03989E
:1012C000059912310422FFF70BFFFFE70FE00948F1
:1012D000006801900198002808D0FFE7019805995F
:1012E000488001A8408805998880FFE7FFE706B09D
:1012F00080BDC04600210240E8F7FF1FECF7FF1F4A
:10130000F0F7FF1F10B583B0002002900190344821
:1013100001680122120411430160FFE70298401C9A
:1013200002902F4800680121490408400190FFE71E
:10133000019800210028009107D1FFE70298294970
:10134000401A411E88410090FFE70098C00700281E
:10135000E4D1FFE7224800688003002802D4FFE7B9
:10136000FFE7FEE720480168012211430623994365
:1013700001601E4801680160016801600168016048
:101380001B490B680F24A3430B600168194B1940DC
:101390000160016811231B041943016010480168B2
:1013A000120611430160FFE70D4800688001002824
:1013B00001D4FFE7F8E70D4801680322914301607B
:1013C0000168022211430160FFE7084800680C2110
:1013D0000840082801D0FFE7F7E703B010BDC0467A
:1013E00000100240FFFF00000020024004100240F5
:1013F0002C100240FFFF007F80B5FFF783FF80BD08
:1014000080B582B001900198B0214158C96AC06C82
:10141000002200911146009B984702B080BD80B524
:1014200082B001900198C26C5021435A002100F013
:101430001BFB02B080BD80B582B001900198B02145
:101440004158896A002200911146009A904702B0E3
:1014500080BD80B582B001900198B0214158C96A21
:10146000C06C002200911146009B984702B080BDDD
:1014700080B582B001900198002100F0A5FC02B077
:1014800080BDB0B584B01C4615460390029101A8FA
:101490000280684603800298039948600198039986
:1014A000088100980399488104B0B0BDB0B584B0FC
:1014B0001C4615460390029101A8028068460380ED
:1014C000029803994860019803990881009803994C
:1014D000488104B0B0BDB0B584B01C461546039039
:1014E000029101A80280684603800298039948602F
:1014F00001980399088100980399488104B0B0BD10
:10150000B0B584B01C4615460390029101A8028034
:1015100068460380029803994860019803990881FE
:1015200000980399488104B0B0BD000081B00090DC
:1015300000984078802108430149086001B0704755
:101540004C5C004080B584B0029001910298807894
:10155000032812D1FFE70198007900280CD1FFE79A
:101560000298AC214158C968019A00911146009A2D
:10157000904703A9087004E0FFE703A80121017068
:10158000FFE703A8007804B080BD80B582B0019069
:101590000198B021405880680121009008460099C8
:1015A000884701980521817002B080BD0D48012156
:1015B0000160002101600C4A1160044A1160016859
:1015C00049F60072114301607047C046505C00400C
:1015D000044801210160044900220A6003210160DE
:1015E0007047C046405C0040445C004081B001460A
:1015F0006A4610701078012807D1FFE70748016894
:1016000048F200021143016006E00448016848F214
:10161000000291430160FFE701B07047585C004051
:1016200080B584B00A46039002A801700399B023E4
:10163000CB589B6B0078019008460199009298471F
:1016400004B080BD10B587B013460C46059004A8C1
:10165000017003A8027002A900220A8001A90A8071
:1016600000920078002815D1FFE7ED48016804AA30
:1016700013781B01C918C968374B194001AB198091
:1016800000681178090140188068400058494018E6
:1016900000903CE003A80078012833D1FFE704A8BC
:1016A00000788000EE4940584006002814D5FFE736
:1016B000DB48016804AA13781B01C9184968264B46
:1016C000194001AB198000681178090140584000A9
:1016D00047494018009014E0D148016804AA1378E3
:1016E0001B01C918C9681C4B194001AB198000685F
:1016F000117809014018806840003D494018009069
:10170000FFE703E006A80021018020E0FFE702A830
:1017100000210180FFE702A8008801A90988491C6F
:10172000490888420FD2FFE70098011D0091006828
:10173000059908800598801C0590FFE70298401CD9
:1017400002A90880E7E7019806A90880FFE706A834
:10175000008807B010BDC046FF03000010B585B07B
:1017600013460C46049003A8017002A8028000886A
:10177000002824D0FFE7AA48006803A909780901D6
:10178000405840001A494018009000200190FFE79F
:10179000019802A90988491C490888420ED2FFE72E
:1017A0000498008800990A1D009208600498801C23
:1017B0000490FFE70198401C0190E9E7FFE702A8C9
:1017C00000889749096803AA1278120189184860AD
:1017D000FFE703A801788900A14A89583F4B1940C7
:1017E00030235940007880008150FFE705B010BDDC
:1017F0000060004080B584B00A46039002A80170E2
:101800000399B023CB585B6A007801900846019990
:101810000092984704B080BD83B00A46029001A8A8
:10182000017001787F2319406B4619700078C00958
:10183000002826D0FFE7FFE7684600788000884947
:101840004058400600280ED5FFE7FFE768460178BC
:101850008900834A8958204B194040310078800024
:101860008150FFE7FFE7FFE7FFE76846017889005F
:101870007B4A8958194B1940007880008150FFE756
:1018800027E0FFE76846007880007549405840042B
:10189000002810D5FFE7FFE7684601788900704A05
:1018A00089580D4B194044F20003C9180078800094
:1018B0008150FFE7FFE7FFE7FFE76846017889000F
:1018C000674A8958674B1940007880008150FFE7CC
:1018D000FFE703B07047C0468F8F0000BF8F000046
:1018E000B0B588B00C46079006A801700592049325
:1018F0000799B0228A58126A0078059B049D0390CC
:101900000846039902921A462B46029D0194A84765
:1019100008B0B0BD70B58AB01C460D46099008A845
:101920000170079206A90B80099A03787F2633403D
:101930000C265E43921918320592059A079B098876
:1019400000260490104603911946039A33460294E8
:101950000195FFF796FD0998B0214158896A049ACC
:10196000137800911946009B98470AB070BD00009B
:1019700083B0029001A800210170029848300090C5
:101980002748026880231360026851600099402252
:101990000A800299183100910068826000980280E4
:1019A000009800883F280BD3FFE70098008840018B
:1019B000401E48F200010843F8490968C86009E080
:1019C00000980088401C012188434002F3490968BF
:1019D000C860FFE701A801210170FFE701A80078B6
:1019E000032811D8FFE701A801788900EA4A89583D
:1019F0000E4B19400078014380008150FFE70198A9
:101A0000401C01A90870E9E7E3480649016006485F
:101A10008021016002980121817003B07047C046A7
:101A200034000020203200004C5C00407070FFFF4A
:101A300082B00A46019068460170FFE76846017867
:101A40004906C90DD44A8958D54B194043F20003C1
:101A5000594000784006C00D8150FFE702B0704742
:101A6000005C00408FBF0000B0B58AB01C460D4638
:101A7000099008A80170079206A90B8000787F22C0
:101A8000104005AA1070099812780C235343C0180F
:101A900048300490088804990988884204DAFFE7EE
:101AA00006A80088029003E0049800880290FFE7EF
:101AB000029803A908800998B0228058C06A079A42
:101AC00005AB1B780C880190104600911946224600
:101AD000019B984704980799009A1388C918069C97
:101AE000E41AA2B2FFF7CDFC0AB0B0BDB0B588B021
:101AF0000C46079006A8017005920493049880781C
:101B000003A9087008787F22104002AA1070049878
:101B1000037940790002C01801AB188000200090C2
:101B20000498C0788007000F9A4B18581278104319
:101B30009200E94BD0500878C009002863D0FFE735
:101B4000079802A909780C224A438018483000906F
:101B500001980099088006A80078002816D1FFE7B0
:101B600005988E49096802AA127812018850FFE789
:101B700002A801788900D84A8958D94B19402023F6
:101B80005940007880008150FFE73BE006A80078CC
:101B9000012835D1FFE702A801788900CE4A89588B
:101BA00040F200131943CD4B194003789B00995024
:101BB00005A90A88794B1C6805782D01625149886E
:101BC0001A680078000110188160FFE702A8017808
:101BD0008900F24A8958F34B194030235940007864
:101BE00080008150FFE7FFE702A801788900EB4AF7
:101BF0008958EB4B1940007880008150FFE700E0E6
:101C0000FFE7FFE7C4E0079802A909780C224A43DE
:101C100080181830009001980099088006A8007874
:101C2000002809D1FFE705985C49096802AA1278E3
:101C300012018918886051E006A8007801284BD16C
:101C4000FFE702A801788900E64A895840F20013AC
:101C50001943A24B1940007880008150FFE702A889
:101C600001788900DF4A89589C4B1940403100783F
:101C700080008150FFE705A80188484A136802AC3C
:101C800025782D0159514088116822781201891850
:101C9000886001A800883F280FD3FFE701A80088CB
:101CA0004001401E48F2000108433C49096802AA6D
:101CB00012781201891848600DE001A80088401CC4
:101CC0000121884340023549096802AA12781201AD
:101CD00089184860FFE700E0FFE7FFE701A80088F8
:101CE0003F280FD3FFE701A800884001401E48F2BB
:101CF000000108432949096802AA127812018918CB
:101D0000C8600DE001A80088401C01218843400202
:101D10002249096802AA127812018918C860FFE7EF
:101D200006A80078002810D1FFE7FFE702A8017895
:101D30008900AC4A89589A4B194042F20003594035
:101D4000007880008150FFE721E006A80078012894
:101D50001BD1FFE7FFE702A801788900A14A895853
:101D60008F4B1940007880008150FFE7FFE702A801
:101D7000017889009B4A89588A4B19402023594091
:101D8000007880008150FFE700E0FFE7FFE7FFE712
:101D900008B0B0BDAC240008005C00403400002056
:101DA0008FBF000080B584B00A46039002A801707E
:101DB0000399B023CB585B6B0078019008460199DA
:101DC0000092984704B080BD80B584B00A46039065
:101DD00002A801700399B023CB585B6B0078019087
:101DE000084601990092984704B080BD83B00A4626
:101DF000029001A8017001787F2319406B46197089
:101E00000078C009002831D0FFE7FFE76846007876
:101E1000800074494058400600280ED5FFE7FFE7D0
:101E20006846017889006F4A89582C4B1940403127
:101E3000007880008150FFE7FFE7FFE702986946DE
:101E400009780C224A4380184A2100224254FFE7B5
:101E5000684601788900634A8958524B19403023FB
:101E60005940007880008150FFE732E0FFE7684684
:101E7000007880005B4940584004002810D5FFE7F7
:101E8000FFE7684601788900564A8958134B194084
:101E900044F20003C918007880008150FFE7FFE793
:101EA000FFE70298694609780C224A43801800210E
:101EB0008176FFE76846017889004A4A8958384B9D
:101EC000194043F200035940007880008150FFE739
:101ED000FFE703B07047C046005C00408F8F0000F2
:101EE000BF8F000083B00A46029001A801700078FD
:101EF0007F210840694608700878002814D1FFE760
:101F0000FFE738480168274A11401022514001601C
:101F1000FFE7FFE733480168214A114041F2000220
:101F200051400160FFE736E001A80078C0090028B1
:101F300018D0FFE70298694609780C224A438018B6
:101F40004A2101224254FFE7684601788900254A68
:101F50008958144B19401023594000788000815053
:101F6000FFE717E00298694609780C224A43801877
:101F700001218176FFE7684601788900194A89586E
:101F8000074B194041F2000359400078800081500E
:101F9000FFE7FFE7FFE703B07047C046005C004083
:101FA0008FBF0000BF8F000084B00A46029001A8D6
:101FB000017001784906C90D0A4BC9580091007893
:101FC000C009002806D0FFE700983021084003A987
:101FD000087003E003A800210170FFE703A8007860
:101FE00004B07047005C0040B0B584B0039002912B
:101FF0000192E848082101700121417040F200225D
:102000004280039A42600298039AA823D050019814
:10201000039AAC2410510398124AB0240251039839
:10202000114A82670398114AC2670398104A8025B3
:1020300042510398C2585268D27940252A40520929
:1020400002710398C171039800590068009380479A
:10205000039800994058C068C068FFF711F904B0B0
:10206000B0BDC04664020020C10400086D04000831
:10207000FF03000880B582B0019001988078019933
:10208000C8700198042181700198C079002804D09B
:10209000FFE7019800F0CCF903E00198032181717A
:1020A000FFE702B080BD000080B58CB0B848016881
:1020B0000BAA11800068DD4909680140FF208143B7
:1020C0000AA80180CA4949680991008800040028CB
:1020D00000D4D5E0FFE7AE4800680BA908800004F3
:1020E000002800D4CBE00BA801880F22114008AAD9
:1020F00011700088C00600287CD5FFE708A800788A
:102100008000AB4940580004002872D5FFE7FFE784
:1021100008A800788000A6494258A74B1A404250B0
:10212000FFE708A800788000A14940580005002872
:1021300010D5FFE708A80078002809D1FFE7099823
:1021400008A909780C224A438218926F904700E050
:102150001BE14DE0099808A90A780C235343C018E5
:10216000183007900998B0228058006B079A52687F
:1021700009780023049010461A46049B984706A944
:102180000880088807994A681018486006980799D7
:102190004A8910184881079841890089814207DAE5
:1021A000FFE706A8008807990988884214DAFFE744
:1021B000099808A909780C224A438018C06F0028A2
:1021C00009D0FFE7099808A909780C224A43821828
:1021D000D26F9047FFE70AE00998B0214158896A19
:1021E00008AA127803911146039A9047FFE7FFE788
:1021F000FFE743E008A8007880006D4940580006DA
:1022000000283AD5FFE7FFE708A800788000684972
:102210004258684B1A404250FFE7099808A90978CC
:102220000C224A4380184830059005980089002800
:1022300016D1FFE7099808A909780C224A438018AB
:102240008021405800280AD0FFE7099808A909789A
:102250000C224A4382188023D2589047FFE70BE0B4
:10226000099808A90978059A5368128902921A46B2
:10227000029BFFF7F9FBFFE7FFE7FFE72BE7FFE72D
:102280000AA80088C004002811D5FFE74048424949
:1022900001600998C078099988700998407A0028E7
:1022A00004D1FFE70998FEF7E1FFFFE7FFE70AA87F
:1022B0000088000500280ED5FFE75C480068C006CE
:1022C000002807D4FFE70998FFF7D4FE30483349C8
:1022D0000160FFE7FFE70AA800888005002812D503
:1022E000FFE72B482E4901602E480068002809D0DE
:1022F000FFE72C4800680068099901900846019999
:102300008847FFE7FFE70AA80088C00500282DD509
:10231000FFE71F482449016009988079002824D0EC
:10232000FFE709988179491E8171080600281BD1B1
:10233000FFE70998407A002809D0FFE73B48016889
:102340001022914301600998002141720BE0374847
:1023500001681022114301600998032181710998D5
:1023600001214172FFE7FFE7FFE7FFE70AA80088C6
:102370004005002809D5FFE705480C490160099888
:10238000B0214158C9698847FFE70CB080BDC046FD
:10239000445C0040BC030020FFEFFFFFFFF7FFFF9E
:1023A000FFFDFFFFC4030020FFFEFFFFFFFBFFFF59
:1023B000005C00400F8F00008F0F00001B48016879
:1023C0000422914301600168082291430160704733
:1023D00081B0009006484068007A012806D1FFE7E6
:1023E00012480168102211430160FFE701B07047F5
:1023F000BC03002080B584B003900291029841781C
:102400008900064A5158039A01901046019A00919A
:102410001146009B984704B080BDC04600000020D4
:10242000024801680C22114301607047405C004083
:1024300080B582B001900198B02140580069804772
:1024400002B080BD80B584B002900191029880787E
:10245000032813D1FFE70298AC21405800690028F7
:102460000CD0FFE70298AC2141580969019A00910C
:102470001146009A904703A9087003E003A80121C0
:102480000170FFE703A8007804B080BD02E008C82F
:10249000121F08C1002AFAD170477047002001E0DE
:1024A00001C1121F002AFBD170470000000200008A
:1024B000000400000000000000060000E024000806
:1024C00000000020A8020000CC0100082826000817
:1024D000A8020020200500009C2400080000000045
:1024E0002F4909000899050008650A0008E50B2C2A
:1024F00008650A0008710A0008DD062C08D90B00DF
:102500000867060008E10A2E08DD080008A30C0091
:1025100008FB0C000845600040FF9DD10E0008A399
:102520000E0008850F00082B770D0008AD0D000880
:10253000010E3D0809024300020100803209042E09
:1025400001020201000524001001052401290104F3
:102550002402020524064F010705820308000A0928
:10256000040100020A3607050302404607058102FE
:102570004032B033205C52203A5402002012010055
:1025800002022F40E9288A0100010102030116031B
:10259000472E690067006100440065007600690409
:1025A0006E6300652E1A0347004400330032002D8D
:1025B00000430C6A440043005F00410043004D03A8
:1025C000811A032FDB030008B1030008070D000880
:1025D000A4023320C22C2044010020C6010020ADFB
:1025E000152C08D1150008ED1500082D152C082113
:1025F000240008BD230008D1232C0871190008ED20
:102600001A000819182C08311A00085D170008452F
:10261000162C08E51E0008ED1D0008A91F16080469
:082620000309040000000000A2
:040000050800015599
:00000001FF
