:020000040800F2
:10000000B0060020E10A0008DD080008DF0800084B
:1000100000000000000000000000000000000000E0
:10002000000000000000000000000000E3080008DD
:100030000000000000000000E5080008E7080008D4
:10004000F30A0008F30A0008F30A0008F30A00089C
:10005000F30A0008F30A0008F30A0008F30A00088C
:10006000F30A0008F30A0008F30A0008F30A00087C
:10007000F30A0008F30A0008F30A0008F30A00086C
:10008000F30A0008F30A000800000000F30A000861
:10009000F30A0008F30A0008F30A0008F30A00084C
:1000A000F30A0008F30A0008F30A00089F0F00088B
:1000B000F30A000800000000F30A00080000000036
:1000C00000F002F800F046F80CA030C808382418F8
:1000D0002D18A246671EAB4654465D46AC4201D180
:1000E00000F038F87E460F3E0FCCB646012633426C
:1000F00000D0FB1AA246AB463343184788220000C3
:10010000A8220000103A02D378C878C1FAD8520762
:1001100001D330C830C101D504680C6070470000BD
:100120000023002400250026103A01D378C1FBD813
:10013000520700D330C100D50B60704710B5642959
:1001400002D101F0F5FE10BD002010BD1FB51FBD8E
:1001500010B510BD02F0E3F81146FFF7F7FF00F00D
:1001600009F802F0FBF803B4FFF7F2FF03BC00F05C
:10017000D3FC0000A0B000F02BFF7D20C00000F0F9
:1001800062FFE120400200F0D4FC00BFFF20F53008
:1001900000F059FF00250FE07E4868430121490522
:1001A00042187DA1684601F087FE684600F0E1FE36
:1001B00000F020FD681CC5B2072DEDDB7FA000F02C
:1001C000D8FE00F017FD89A000F0D3FE00F012FD6C
:1001D00086A000F0CEFE00F00DFD8AA000F0C9FE62
:1001E00000F008FD8DA000F0C4FE00F003FD91A01A
:1001F00000F0BFFE00F0FEFC94A000F0BAFE00F09C
:10020000F9FC98A000F0B5FE00F0F4FC9BA000F013
:10021000B0FE00F0EFFCA0A000F0ABFE00F0EAFCA6
:10022000A4A000F0A6FE00F0E5FCA7A000F0A1FE4F
:1002300000F0E0FCA9A000F09CFE00F0DBFCADA00B
:1002400000F097FE00F0D6FCB0A000F092FE00F0A7
:10025000D1FCB2A000F08DFE00F0CCFCB5A000F007
:1002600088FE00F0C7FCB9A000F083FE00F0C2FCDD
:10027000BFA000F07EFE00F0BDFCC3A000F079FE40
:1002800000F0B8FCC8A000F074FE00F0B3FCCDA0F4
:1002900000F06FFE00F0AEFCD3A000F06AFE00F0AC
:1002A000A9FCD8A000F065FE00F0A4FCE120C0008D
:1002B00000F0C9FEDCA000F05CFE00F09BFCE6A0B4
:1002C00000F057FE00F096FCEBA000F052FE00F0AC
:1002D00091FCF0A000F04DFE00F08CFCF4A000F0CA
:1002E00048FE00F087FC002400BF10E02246F6A183
:1002F000684601F0E1FD601CC4B2642000F0A3FE7A
:10030000684600F036FE00F075FC601CC4B23C2C60
:10031000ECDD002400BF2EE02246F3A1684601F088
:10032000CBFD601CC4B2642000F08DFE684600F076
:1003300020FE00F05FFC2246F3A1684601F0BCFD00
:10034000601CC4B2642000F07EFE684600F011FE1E
:1003500000F050FC2246F4A1684601F0ADFD601C9F
:10036000C4B2642000F06FFE684600F002FE00F0A8
:1003700041FC601CC4B2322CCEDD4B20000100F0E9
:1003800062FEF1A000F0F5FD00F034FC28242246C6
:10039000F2E10000802E01004449522831293B46F9
:1003A00053494D47282532642C302C302C323230C2
:1003B0002C3137362C30293B0D0A00004449522895
:1003C00031293B434C522830293B444332342833B3
:1003D000302C31302C27C9EEDBDAC9D0CAD3BDE7C7
:1003E000BFC6BCBC2C34293B0D0A0000504C283041
:1003F0002C34302C3232302C34302C3135293B0D1A
:100400000A000000504C28302C38352C3232302C69
:1004100038352C3135293B0D0A000000504C28306E
:100420002C3133302C3232302C3133302C313529D1
:100430003B0D0A00504C28302C3137352C323230ED
:100440002C3137352C3135293B0D0A00504C2830E2
:100450002C34302C302C3137352C3135293B0D0ADA
:1004600000000000504C2837302C34302C37302C12
:100470003137352C3135293B0D0A0000504C2831DD
:1004800034352C34302C3134352C3137352C313552
:10049000293B0D0A00000000504C283231392C3421
:1004A000302C3231392C3137352C3135293B0D0A7E
:1004B000000000004349522833302C36302C3135AF
:1004C0002C31293B0D0A0000434952462834302C78
:1004D00037302C31352C32293B0D0A00424F58461B
:1004E0002839302C34352C3132302C36302C33290D
:1004F0003B0D0A00424F58283130302C35352C3115
:1005000033302C37302C31293B0D0A005053283121
:1005100038302C35352C32293B0D0A00504C28310F
:1005200036302C36352C3230302C36352C31293BB8
:100530000D0A0000444331362832302C39302C2744
:10054000414243272C33293B0D0A000053424328E4
:100550003135293B44435631362832302C31313045
:100560002C27414243272C30293B0D0A0000000074
:10057000444332342838352C38352C273132332750
:100580002C32293B0D0A00005342432834293B44B6
:10059000435632342838352C3130352C273132331C
:1005A000272C30293B0D0A004443333228313530A3
:1005B0002C39302C27C9EEDBDA272C32293B0D0AE7
:1005C000000000005342432831293B444356333254
:1005D00028352C3134302C27C9EEDBDA272C313585
:1005E000293B0D0A00000000444333322838302CE8
:1005F0003134302C27D6D0B9FA272C36293B0D0AB6
:10060000000000005342432831293B444356333213
:10061000283135302C3134302C27D6D0B9FA272C5C
:100620003135293B0D0A0000434C522830293B4408
:1006300049522831293B4653494D472832363339F0
:100640003233322C302C302C3232302C3137362CA5
:1006500030293B0D0A000000444333322832352C48
:10066000352C27323031372D30362D323620272C9D
:100670003135293B0D0A0000444332342831352CF2
:1006800033352C2720D0C7C6DAB6FE272C313529C2
:100690003B0D0A0044433234283131302C33352CA1
:1006A0002720323020A3BA272C3135293B0D0A00F0
:1006B000504C28302C36302C3232302C36302C3105
:1006C00035293B0D0A000000534243283135293BB0
:1006D0004443563234283138302C33352C272564A6
:1006E000272C31293B0D0A00534243283135293B41
:1006F00044435633322833302C39302C2725642795
:100700002C31293B0D0A0000534243283135293B47
:1007100044435633322839302C39302C272564276E
:100720002C31293B0D0A0000534243283135293B27
:100730004443563332283135382C39302C27256440
:10074000272C31293B0D0A00434C522830293B44C9
:1007500049522831293B4653494D472832373136D3
:100760003637322C302C302C3232302C3137362C7C
:1007700030293B0D0A00000023A1684601F09CFBD4
:10078000684600F0F6FB00F035FA7D20C00000F06E
:100790005AFC7F24224626A1684601F08DFB68465C
:1007A00000F0E7FB00F026FA7D20C00000F04BFCD3
:1007B000C824224628A1684601F07EFB684600F066
:1007C000D8FB00F017FA7D20C00000F03CFC0024AC
:1007D00022462BA1684601F06FFB684600F0C9FB7A
:1007E00000F008FA7D20C00000F02DFC7D20C00044
:1007F00000F029FC2CA000F0BCFB00F0FBF936480F
:1008000000F021FCC2E40000444356323428383062
:100810002C38302C27C1C1B6C8A3BA383020272CB9
:1008200031293B424C28253264293B0D0A00000047
:1008300044435632342838302C38302C27C1C1B6C6
:10084000C8A3BA353020272C31293B424C28253209
:1008500064293B0D0A0000004443563234283830E6
:100860002C38302C27C1C1B6C8A3BA323020272C6F
:1008700031293B424C28253264293B0D0A000000F7
:1008800044435632342838302C38302C27C1C1B676
:10089000C8A3BA313030272C31293B424C282532AD
:1008A00064293B0D0A0000004449522831293B438A
:1008B0004C52283631293B444333322834302C37CC
:1008C000302C27D1DDCABEBDE1CAF8A3A1272C3147
:1008D00035293B0D0A000000DC050000704700BF11
:1008E000FEE77047704770470CB5002001900090FC
:1008F000734800680121090408437149086000BF7A
:100900006F48006801214904084000900198401C8C
:1009100001900098002804D105210902019888421D
:10092000EED167480068012149040840002802D040
:100930000120009001E0002000900098012839D1AA
:100940001120604908605E4840685D49486008467B
:1009500040684860084640683F2109048843584978
:10096000486008464068112109040843544948601A
:10097000084600680121090608435149086000BF84
:100980004F4800680121490608400028F8D04C482B
:100990004068800880004A49486008464068022153
:1009A00008434749486000BF454840680C2108405B
:1009B0000828F9D10CBD10B5414800680121084351
:1009C0003F490860084640683F4908403C49486044
:1009D000084600683D4908403949086008460068F3
:1009E00001218904884336490860084640683F2150
:1009F00009048843324948600846C06A000900017A
:100A0000C8620846006BFF21543188432C490863B3
:100A10000846406B40084000486300208860FFF7AC
:100A200063FF10BDF8B500250024002600272448E8
:100A300040680C2108400546002D04D0042D06D046
:100A4000082D2AD107E022482249086029E02048E1
:100A50002049086025E01A4840680F2189040840B1
:100A60000446174840680121090408400646A00CC6
:100A7000841C002E04D118486043164908600BE01E
:100A80000F48C06A0007000F471C3946104801F0A4
:100A90000CFB60430F49086003E00D480D490860F6
:100AA00000BF00BF06484068F021084000090B491C
:100AB0000D5C08480068E84006490860F8BD000081
:100AC00000100240002002400CB8FFF8FFFFF6FEC5
:100AD00000127A000000002000093D000400002000
:100AE0000748804707480047FEE7FEE7FEE7FEE7C6
:100AF000FEE7FEE704480549054A064B704700003B
:100B0000B7090008C1000008B0000020B0060020AE
:100B1000B0020020B002002000BF704700BFFD4AB5
:100B2000D26980231A40002AF9D0FA4B2033188169
:100B3000704710B58AB004460121480400F027FE32
:100B40000121880300F031FE01220921C80600F0CE
:100B500074FB01220A210920C00600F06EFB03206D
:100B600040020890022108A801710321417100216F
:100B700081710121C17108A90920C00600F0D4FAD1
:100B80000294002003900490059007900C2006909A
:100B900002A9E04800F0F0FE0122DF49DD4801F043
:100BA00019F90121DB4800F080FF1B216846017123
:100BB000022141710121817101A800F067FE04202A
:100BC0000890032108A841710021817108A909201A
:100BD000C00600F0A9FA0AB010BD00BFCD48C06938
:100BE000202108400028F9D0CA4820300089C005DB
:100BF000C00D704704E0C94800780F2800D100E01C
:100C0000F9E700BF0020C5490870704700BFC4491C
:100C100009785629FBD1C24949784129F7D1C04901
:100C200089785229F3D10021BD4A11705170917019
:100C30001146C97801701146097941701146497908
:100C4000817011468979C1700021B64A1170B64A87
:100C5000117000BF00BF70477B2809D10021B34A43
:100C600011700121B24A11700021B24A11704FE097
:100C70007D2806D10021AE4A11700121AE4A1170C3
:100C800046E03A2801D02C2808D1AA490978491C05
:100C9000A84A11700021A54A117039E0A4490978C9
:100CA000012912D1A1490978032908DAA149097853
:100CB0004A008918A14A89189C4A127888549B498D
:100CC0000978491C994A117022E04F2803D101216B
:100CD000924A11701CE04B2807D1904909780D22E7
:100CE0001140891C8D4A117012E00D2807D18B49E3
:100CF00009780B221140091D884A117008E00A2862
:100D000006D1864909784907490F0831834A11708D
:100D1000704710B52AE1884800780128FAD1874841
:100D200000785628F6D1854840784128F2D183488A
:100D300080785228EED181484079302815DB7F48F1
:100D40004079392811DC7D48C0783038642343432A
:100D50007A48007930380A2460431B187748407974
:100D600030381818764B187020E074480079302815
:100D70000FDB7248007939280BDC7048C0783038B6
:100D80000A2358436D4B1B79303BC0186C4B1870CD
:100D90000CE06A48C078302808DB6848C0783928F9
:100DA00004DC6648C0783038654B18706348007AB8
:100DB000302815DB6148007A392811DC5F488079DA
:100DC0003038642343435D48C07930380A24604397
:100DD0001B185A48007A30381818594B587020E0C0
:100DE0005648C07930280FDB5448C07939280BDCCD
:100DF0005248807930380A235843504BDB79303BD6
:100E0000C0184F4B58700CE04C488079302808DBF4
:100E10004A488079392804DC484880793038484B82
:100E200058704648C07A302815DB4448C07A3928C3
:100E300011DC4248407A3038642343433F48807A8B
:100E400030380A2460431B183C48C07A30381818E0
:100E50003B4B987020E03948807A30280FDB3748C8
:100E6000807A39280BDC3548407A30380A235843D9
:100E7000324B9B7A303BC018314B98700CE02F48B6
:100E8000407A302808DB2D48407A392804DC2B488A
:100E9000407A30382A4B98702848807B302815DB00
:100EA0002648807B392811DC2448007B30386423B5
:100EB00043432248407B30380A2460431B181F48B4
:100EC000807B303818181E4BD87020E01B48407BC0
:100ED00030280FDB1948407B39280BDC1748007B92
:100EE00030380A235843154B5B7B303BC018144BFA
:100EF000D8700CE01148007B302808DB0F48007BDD
:100F0000392804DC0D48007B30380D4BD8700021A7
:100F100026E0000000380140050105001C0000200B
:100F200021000020250000202600002018000020BD
:100F30001A000020190000201B0000203C000020A7
:100F40001D000020002207E000204B00CB181C4CA5
:100F50001B199854501CC2B2032AF5DB481CC1B2BD
:100F60000529EFDB0020174B187000E0D3E600BF27
:100F700010BD70B50446002510E0207800280CD084
:100F80002178114800F048FE00BF80210E4800F093
:100F900055FF0028F9D0641C00E070BDEDE710B5E6
:100FA00001240A49084800F055FF002806D00648E9
:100FB00000F036FEC4B22046FFF74EFE10BD000022
:100FC0003C0000201B000020003801400501050006
:100FD00010B50420C04300F09CFC2D492D4800684A
:100FE00001F063F840B22C490870002008567D21BA
:100FF000C900484300B22949088010BD0146264A6D
:101000000023D3560A465A43254B5A6100229A615F
:101010001A46126901231A43214B1A6100BF204A64
:101020001069C207D20F002A04D001221204024024
:10103000002AF4D01A4A126952085200184B1A6159
:1010400000229A6170470146144A0023D35E0A4683
:101050005A43134B5A6100229A611A4612690123BE
:101060001A430F4B1A6100BF0D4A1069C207D20F15
:10107000002A04D0012212040240002AF4D0084AB7
:10108000126952085200064B1A6100229A61704799
:1010900000127A0000000020280000202A00002012
:1010A00000E000E010B504460920C006844209D1E2
:1010B0000121480400F095FB00210120400400F0CC
:1010C00090FB30E06E48844208D10121000200F01C
:1010D00088FB0021200200F084FB24E06948844260
:1010E00008D10121000200F07CFB0021200200F069
:1010F00078FB18E06448844209D10121080500F01A
:1011000070FB00210120000500F06BFB0BE05F4845
:10111000844208D10121880500F063FB00210120F1
:10112000800500F05EFB10BDF0B50A4600210023EB
:10113000002400BF3DE001258D402B4615681D4071
:101140002C469C4234D11579012D02D01579022DFF
:1011500016D185684F000326BE40B543856055799A
:101160004E00B540866835438560858801268E40EF
:10117000B5438580858896798E40B6B235438580A3
:1011800005684F000326BE40B543056015794E0043
:10119000B540066835430560C5684F000326BE406C
:1011A000B543C560D5794E00B540C6683543C560C6
:1011B000491C1029BFD3F0BD3549016000210171E0
:1011C0000221417100218171C171704708B501226E
:1011D00012040092009A0A430092009AC261C1610F
:1011E000009AC261C2690092C269009208BD0246BB
:1011F0000020138A0B40002B01D0012000E00020CA
:1012000070470146088A704702460020938A0B40C7
:10121000002B01D0012000E0002070470146888AA1
:1012200070478161704701857047002A01D0816154
:1012300000E00185704781827047F0B500230024EB
:101240004D07EE0E1546B5402B46CD10AE000546B7
:101250002035AD594E07F70E0F26BE40B543CE10D0
:10126000B60007462037BD51CD10AE003D46AD5902
:101270001D432C46CD10AD003E467451F0BD00001C
:101280000004004800080048000C00480014004812
:10129000FFFF0000FD48006801210843FB4908608A
:1012A00008464068FA490840F8494860084600681E
:1012B000F8490840F549086008460068012189049A
:1012C0008843F2490860084640683F210904884382
:1012D000EE4948600846C06A00090001C862084635
:1012E000006BFF2154318843E84908630846406B8E
:1012F0004008400048630020886070470021E34AAE
:10130000917011468870704710B502460021002385
:1013100000205111002902D1DC4C23680BE0012987
:1013200002D1DA4C236A06E0022902D1D74C636A63
:1013300001E0D64C636BD106C90E01248C401C40E1
:10134000002C01D0012000E0002010BD38B50020A5
:1013500000900024002500BF1120FFF7D5FF0546AF
:101360000098401C0090052109020098884201D095
:10137000002DF1D01120FFF7C7FF002801D0012474
:1013800000E00024204638BD01460020BF4A106816
:10139000F82302469A431046CA001043BB4A106025
:1013A0007047002806D0B949096801221143B74A9D
:1013B000116005E0B549096849084900B34A116060
:1013C000704701460020B14A506BF82302469A4309
:1013D0001046CA001043AD4A50637047002806D03B
:1013E000AA49496B01221143A84A516305E0A74964
:1013F000496B49084900A54A51637047002806D047
:10140000A249496B04229143A04A516305E09F49D8
:10141000496B042211439D4A516370479B49096AF5
:1014200049084900994A11621146096A0422914308
:10143000964A11621146096A014311627047934945
:10144000096A18229143914A11621146096A0143BF
:1014500011627047002806D08C49496A0122114365
:101460008A4A516205E08949496A49084900874A20
:1014700051627047854A52683D231B049A43834B4F
:101480005A601A46526803460B431A437F4B5A6010
:101490007047002807D07D490968012212061143D0
:1014A0007A4A116006E079490968012212069143DF
:1014B000764A1160704701460020744AD06A0009DC
:1014C000000102460A431046704AD0627047002865
:1014D00007D06E4909680122D20411436B4A11609A
:1014E00006E06A4909680122D2049143674A116003
:1014F00070476649C871704701460020634A5068CA
:101500008008800002460A431046604A50607047D7
:101510005E4840680C2108407047014600205B4A45
:101520005068F02302469A43104602460A4310468A
:10153000564A5060704701460020544A50680723BD
:101540001B0202469A43104602460A4310464F4A7F
:10155000506070474D4949680122920391434B4ABC
:1015600051601146496882B21143484A51601146A0
:10157000096B92159143454A11631146096B020CA0
:101580001143424A116370474049096B402291431D
:101590003E4A11631146096B0143116370473B4991
:1015A000096B10229143394A11631146096B0143BB
:1015B000116370473549096B89088900334A116303
:1015C0001146096B014311637047FEB504460025BF
:1015D000002600200190009000272C4840680C2134
:1015E00008400546002D04D0042D05D0082D28D133
:1015F00005E02948206027E02748206024E02348B0
:1016000040680F21890408400646204840680121AF
:10161000090408400190B00C861C0198002803D1F1
:101620001E48704320600BE01848C06A0007000F96
:10163000401C00901848009900F037FD704320606E
:1016400002E01548206000BF00BF10484068F0214C
:10165000084005462D091248475D2068F840606043
:101660000A48406807210902084005462D0A0C482F
:10167000475D6068F840A0600448006BFF210131BD
:101680000840884210D00748E0601BE0001002408C
:101690000CB8FFF8FFFFF6FE00127A0000093D00CB
:1016A0002C000020809FD5007548406801218903E7
:1016B0000840884203D0A0684008E06002E0A068CB
:1016C0008008E0606E48006B40210840402802D04E
:1016D0006C48206102E00120C00320616848006B73
:1016E00010210840102802D06748606101E020689E
:1016F00060616348006B8007800F002802D1A068FA
:10170000A06119E05E48006B8007800F012802D1BC
:101710002068A06110E05A48006B8007800F022803
:1017200002D18003A06107E05548006B8007800F5D
:10173000032801D15448A061FEBD5149096A014303
:101740004F4A11627047002807D04D49096A0122AB
:10175000D20311434A4A116206E04949096A01224B
:10176000D2039143464A11627047002807D044498A
:10177000096A012212041143414A116206E04049FC
:10178000096A0122120491433D4A116270470029FF
:1017900005D03B4A52690243394B5A6104E0384A4A
:1017A00052698243364B5A617047002905D0344A4A
:1017B00092690243324B9A6104E0314A9269824352
:1017C0002F4B9A617047002905D02D4AD2690243F8
:1017D0002B4BDA6104E02A4AD2698243284BDA6152
:1017E0007047002905D0264A926A0243244B9A6228
:1017F00004E0234A926A8243214B9A62704700298F
:1018000005D01F4AD26802431D4BDA6004E01C4A2F
:10181000D26882431A4BDA607047002905D0184A13
:1018200012690243164B1A6104E0154A1269824399
:10183000134B1A617047002905D0114A527A0243AE
:101840000F4B5A7204E00E4A527A82430C4B5A7282
:1018500070470B48406A012109060843084948625D
:10186000704701460020064A92680A40002A01D0CB
:10187000012000E000207047014988727047000095
:10188000001002401280000000127A0000218278CD
:10189000002A27D0274A03231B02D21803789B1063
:1018A0009B00D15802789207D30EFF229A400B4634
:1018B0009343194642789207120E03789B07DB0E7A
:1018C0009A4011431B4A03231B02D21803789B1032
:1018D0009B00D1500278D306DB0E01229A40154BB3
:1018E0001A6007E00278D306DB0E01229A40114B02
:1018F00080331A607047002905D00F4A12690243ED
:101900000D4B1A6104E00C4A126982430A4B1A61BA
:101910007047042806D10949096904221143074A7E
:10192000116105E00549096904229143034A1161E7
:101930007047000000E100E000ED00E000E000E0A2
:1019400010B50446F748844209D101218803FFF706
:1019500056FF002101208003FFF751FF0BE0F24802
:10196000844208D101214804FFF757FF00210120DC
:101970004004FFF752FF10BDF0B589B005460E4692
:1019800000240020089000BF00BF286840084000E5
:1019900028606C6803210903204688430446B06828
:1019A00004436C602C68E1480440F16870680843A7
:1019B0003169084304432C60AC68032109022046C6
:1019C0008843044670690443AC606846FFF7FDFD38
:1019D000D448854202D10698089001E00298089008
:1019E00028680121C9030840002809D03268510045
:1019F0001923089A5A43104600F057FB074608E09F
:101A0000326891001923089A5A43104600F04DFBA2
:101A100007466421384600F048FB04012009642190
:101A20004843381A079028680121C9030840002854
:101A30000AD00799C90008463230642100F035FB0E
:101A40004007400F044309E0079909010846323076
:101A5000642100F02AFB0007000F0443AC8109B0A9
:101A6000F0BD4B21C9010160002141608160C1606E
:101A70000C21016100214161704710B500224268CC
:101A80000F2424021346A3431A464C680B682343D1
:101A90008C682343CC6823431A43426010BD002165
:101AA000016041608160C1607047002904D0026814
:101AB00001231A43026003E00268520852000260E8
:101AC0007047002A03D003680B43036002E00368F9
:101AD0008B4303607047002905D002680123DB03B4
:101AE0001A43026004E002680123DB039A430260A8
:101AF0007047002905D082680123DB021A43826007
:101B000004E082680123DB029A4382607047002967
:101B100005D042680123DB041A43426004E04268B6
:101B20000123DB049A4342607047002905D04268D4
:101B300001239B041A43426004E0426801239B0492
:101B40009A4342607047002A03D043680B434360C6
:101B500002E043688B4343607047002905D0426828
:101B60000123DB031A43426004E042680123DB03E4
:101B70009A4342607047002905D042680123DB0583
:101B80001A43426004E042680123DB059A43426045
:101B900070474269120E1206426142690A4342616D
:101BA0007047028AFF231B021A400282028A0A43FC
:101BB00002827047002904D0026802231A4302609F
:101BC00003E0026802239A4302607047826803239D
:101BD0001B059A43826082680A438260704700292D
:101BE00005D0426801231B051A43426004E04268A5
:101BF00001231B059A4342607047426803235B053B
:101C00009A43426042680A4342607047C1690122B8
:101C1000D2039143C1617047CA05D20D0285704756
:101C20000146888CC005C00D704742681202120A36
:101C3000426042680B061A4342607047002905D093
:101C4000026801235B031A43026004E00268012377
:101C50005B039A430260704702680123DB029A43E8
:101C6000026002680A4302607047426810239A4388
:101C7000426042680A4342607047426820239A43A8
:101C8000426042680A4342607047002905D04268BA
:101C900001239B031A43426004E0426801239B0333
:101CA0009A4342607047002904D0826808231A438F
:101CB000826003E0826808239A4382607047028A48
:101CC000D2B20282028A0B021A43028270470029B2
:101CD00004D0826820231A43826003E082682023B4
:101CE0009A4382607047002904D0826810231A4307
:101CF000826003E0826810239A43826070478268A2
:101D000007235B049A43826082684B041A43826013
:101D1000704742691202120A426142690B061A4375
:101D2000426170470038014000440040F3E9FFFF82
:101D3000826804239A43826082680A438260704703
:101D4000002904D0826802231A43826003E082687B
:101D500002239A4382607047002905D082680123DC
:101D60009B031A43826004E0826801239B039A4329
:101D70008260704782680123DB039A438260826835
:101D80000A438260704702681F235B059A43026022
:101D900002684B051A430260704702681F231B0448
:101DA0009A43026002680B041A4302607047002ADB
:101DB00003D083680B43836002E083688B438360B6
:101DC0007047826801235B039A43826082680A43FA
:101DD00082607047F8B5034600240026009600256F
:101DE000002018460E04340ECEB200960127009E45
:101DF000B7403D46022C01D1001D02E0032C00D16A
:101E00000830002A03D006682E43066002E0066808
:101E1000AE430660F8BD002A03D0038B0B43038357
:101E200002E0038B8B4303837047826801231B030B
:101E30009A43826082680A438260704702460020AB
:101E4000D3690B40002B01D0012000E00020704737
:101E50000162704770B502460B4600240021002540
:101E600000201E04350ED9B201268E403146012DC8
:101E700002D11668314006E0022D02D15668314089
:101E800001E0966831401C0C0126A6403446D66914
:101E90003440002903D0002C01D0012000E00020B4
:101EA00070BD10B5002300220B0C01249C4022467B
:101EB000026210BD704700000FB41CB5074B06AAA4
:101EC0007B4469460090059800F0FDF900206946C2
:101ED00000F00CFA1CBC08BC04B018472904000030
:101EE00070B5044685690068C10601D5302600E05A
:101EF0002026C00707D070BD62683046A1689047B1
:101F0000206A401C20626D1EF6D570BD70B5044677
:101F100085690078C00707D170BD6268A16820207C
:101F20009047206A401C20626D1EF6D570BD0000EF
:101F3000F7B5002575291068009914A611D0C04680
:101F4000C046002802DA404211A608E0009909685C
:101F50008A0701D50FA602E0490704D50EA6012580
:101F600001E0C046C046009F0024243704E000F092
:101F7000C2F930313955641C0028F8D12B4632465D
:101F80002146009800F042F9FEBD0000000000006C
:101F90002D0000002B00000020000000F3B50446D7
:101FA000002081B020622046E168884700287AD06E
:101FB000252802D06268A16871E0E168204600250A
:101FC000884706460020E0610746A0612A2E0AD015
:101FD000304600F0CFF9002827D0B8000019303E75
:101FE0000090866119E00298BA00121902C8916146
:101FF00002902046E1688847012F064617D1E06924
:1020000000281FDA202085431CE000980A218069FF
:10201000484300998019303888612046E168884734
:10202000064600F0A7F90028EFD1012F0AD02E2E86
:1020300008D12046E16888470646202005437F1CDA
:10204000022FC3DBA069002803DA4042A06101200F
:102050000543E80701D010208543002E23D03046E9
:102060004138192803D80120C002054320362046F4
:1020700025603146029A1546FEF760F800280BD01D
:10208000012806D0ED1DE808C000083002908AE75C
:1020900009E02D1D029586E762683046A1689047E9
:1020A000206A401C7EE7206AFEBD002203098B42A5
:1020B0002CD3030A8B4211D300239C464EE00346E7
:1020C0000B433CD4002243088B4231D303098B429B
:1020D0001CD3030A8B4201D394463FE0C3098B42D1
:1020E00001D3CB01C01A524183098B4201D38B012A
:1020F000C01A524143098B4201D34B01C01A5241CD
:1021000003098B4201D30B01C01A5241C3088B4211
:1021100001D3CB00C01A524183088B4201D38B00FC
:10212000C01A524143088B4201D34B00C01A52419E
:10213000411A00D201465241104670475DE0CA0F75
:1021400000D04942031000D34042534000229C4635
:1021500003098B422DD3030A8B4212D3FC2289013F
:1021600012BA030A8B420CD3890192118B4208D315
:10217000890192118B4204D389013AD0921100E077
:102180008909C3098B4201D3CB01C01A524183098B
:102190008B4201D38B01C01A524143098B4201D3B8
:1021A0004B01C01A524103098B4201D30B01C01AE3
:1021B0005241C3088B4201D3CB00C01A524183085D
:1021C0008B4201D38B00C01A5241D9D243088B42B3
:1021D00001D34B00C01A5241411A00D20146634656
:1021E00052415B10104601D34042002B00D54942BA
:1021F000704763465B1000D3404201B50020C046E3
:10220000C04602BD7047704770477047FFB504462F
:102210000D4681B0243000902168880604D5102234
:10222000E0699143216000E00120A84201DD471BE5
:1022300000E000270498A1697A191018081AA06113
:102240002078C00602D42046FFF74AFE002608E0A8
:1022500003986268A168805D9047206A401C761CE4
:10226000206204988642F3DB2078C0060AD5204617
:10227000FFF736FE06E06268A16830209047206ACA
:10228000401C206238467F1E0028F4DC07E00098DE
:102290006268A168405D9047206A401C2062284621
:1022A0006D1E0028F3DC2046FFF730FE2078000684
:1022B00002D5022005B0F0BD0120FBE701694A1CF0
:1022C00002610878704700B58FB002910021059136
:1022D0000549019379440391114604906846FFF73C
:1022E0005DFE0FB000BD0000E5FFFFFF0A68107043
:1022F000521C0A60704701468008081A020910182B
:10230000020A1018020C1018C0088200121852009D
:10231000891A01E0401C0A390A29FBD27047754628
:1023200000F024F8AE46050069465346C008C000D8
:10233000854618B020B5FEF7DDFB60BC00274908D4
:10234000B6460026C0C5C0C5C0C5C0C5C0C5C0C54D
:10235000C0C5C0C5403D49008D46704710B5044614
:10236000C046C0462046FDF7FEFE10BD004870473F
:102370004C00002030380A2801D20120704700208C
:1023800070470000A4230008000000203C0000006B
:1023900004010008E02300083C000020740600004F
:1023A00020010008006CDC020000000000000000BA
:1023B00001020304060708090000000000000000F5
:1023C000000000000000000000000000000000000D
:1023D00000000000010203040102030406070809CB
:0400000508000AE104
:00000001FF
